:100000000C94D0000C945C090C9435090C940E09E6
:100010000C94E7080C94F8000C94F8000C94C008B9
:100020000C94F8000C94F8000C94BD050C94340664
:100030000C94F8000C94F8000C94F8000C94F80060
:100040000C94F8000C94F8000C94F8000C94F80050
:100050000C94F8000C94F8000C94F8000C947608BA
:100060000C94F8000C94F8000C94F8000C94F80030
:100070000C94F8000C94F8000C94F8000C94F80020
:100080000C94F8000C94F8000C94F8000C94F80010
:100090000C94F8000C94F8000C94F8000C94F80000
:1000A0000C94F8000C94F8000C94F8000000000088
:1000B000240027002A002D00300000000000250049
:1000C00028002B002E00310004040404040304055E
:1000D00002020202040302020202060606060606E5
:1000E00004040202020404040802011040804010CB
:1000F000204080408008020401804020100201104E
:100100008010204040200000000200090F00000382
:100110000401000C000000000000000000000000CE
:100120000000000000080B000202020000090400A9
:100130000001020200000524001001052401010154
:10014000042402060524060001070581031000406F
:1001500009040100020A0000000705020240000035
:10016000070583024000000403090412010002EFA6
:100170000201409A230E80000101020301416461E3
:100180006672756974004974737942697473792071
:10019000333275342035562031364D487A00830984
:1001A00011241FBECFEFDAE0DEBFCDBF11E0A0E02B
:1001B000B1E0E4E7F8E102C005900D92A835B1077F
:1001C000D9F721E0A8E5B1E001C01D92A23FB20736
:1001D000E1F710E0C0EDD0E004C02197FE010E94DD
:1001E0001E0CCF3CD107C9F70E94B4090C94380CFF
:1001F0000C94000083E08093E9008091F200882352
:1002000019F08AE38093E800089590918901911193
:1002100003C08FEF9FEF08954FB7F89492E090934B
:10022000E9009091F200292F30E01216130614F421
:1002300021E030E0232B29F084E68093880180912F
:10024000F100992339F02091F200211103C02BE62F
:100250002093E8004FBF9923E1F290E008952FB773
:10026000F89483E08093E9009091E800892F8072F0
:1002700095FF04C09091F20080E4891B2FBF089580
:100280008091800181110DC082E080937C0184E027
:1002900080937D0110927F0110927E0181E0809316
:1002A00080018CE791E008950C94FA0081E080933E
:1002B0006D01089540915F015091600120915D01B1
:1002C00030915E0142175307B4F49091E8009570A5
:1002D000E1F39091E80092FD19C08093F1008091C4
:1002E0005F019091600101968F739927892B19F412
:1002F0008EEF8093E80080915F01909160010196FC
:100300009093600180935F0181E0089580E00895FB
:10031000EF92FF920F931F93CF93DF93F82E192F35
:10032000E62E042F81E0860F880F0E945A0183E099
:100330000E945A01CF2DD12FEC0EFD2EF11CCE15AF
:10034000DF05B9F007FF13C0FE0184910E945A0136
:10035000182F80E00E945A01812321968111EFCF4E
:10036000DF91CF911F910F91FF90EF9008958881B9
:10037000EDCF81E0F5CFDF92EF92FF920F931F93C5
:10038000CF93DF93D82E8A01EB017B01E40EF51E9B
:10039000CE15DF0559F0D7FE12C0FE0184910E94F0
:1003A0005A0121968111F4CF0FEF1FEFC801DF91A1
:1003B000CF911F910F91FF90EF90DF90089588816A
:1003C000EECF0F931F93CF93DF931F92CDB7DEB77E
:1003D00082E0898342E450E065E271E080E80E94B7
:1003E000BB010E944001DC0112960D911C91011588
:1003F000110589F0D801ED91FC910280F381E02D87
:10040000BE016F5F7F4FC801099597FD04C0F801D9
:1004100000851185ECCF89810F90DF91CF911F91DD
:100420000F910895AF92BF92CF92DF92EF92FF9219
:100430000F931F93CF93DF936C017B018B01040F0C
:10044000151FEB015E01AE18BF08C017D10759F0A8
:100450006991D601ED91FC910190F081E02DC601EA
:100460000995892B79F7C501DF91CF911F910F91E4
:10047000FF90EF90DF90CF90BF90AF900895CF9313
:10048000DF931F92CDB7DEB76983DC01ED91FC915C
:100490000280F381E02D41E050E0BE016F5F7F4FAD
:1004A00009950F90DF91CF9108950E942F0190E060
:1004B0000895FC018485958597FD05C02FEF3FEFDA
:1004C0003587248708950C940501CF93DF93EC01C1
:1004D0008C859D8597FF04C00E9405019D878C87B0
:1004E0008C859D85DF91CF910895FC01848595854C
:1004F00097FD0BC09FB7F89482E08093E90080914C
:10050000F2009FBF90E0019608959FB7F89482E0B3
:100510008093E9008091F2009FBF90E00895282F1A
:1005200030E0F901EA5FFE4F9491F901E951FF4F84
:10053000849128533F4FF9012491222309F430C0BC
:100540009923E9F091509F30D0F4E92FF0E0E55580
:10055000FD4F0C941E0CD902DD02BA02D102D50265
:10056000BF02BF02BF02E002E602EA02EE02F402AC
:10057000BF02F802909180009F7790938000E22F55
:10058000F0E0EE0FFF1FE654FF4FA591B4919FB727
:10059000F894EC91611132C080958E238C939FBFAB
:1005A0000895909180009F7DE8CF90918000977F83
:1005B000E4CF94B59F7794BDE2CF94B59F7DFBCFF8
:1005C000909190009F7790939000D9CF9091900058
:1005D0009F7DF9CF90919000977FF5CF9091C000CB
:1005E0009F779093C000CBCF9091C0009F7DF9CFB3
:1005F0009091C200977F9093C200C1CF8E2BCECF37
:10060000CF93DF9390E0FC01E951FF4F2491885391
:100610009F4FFC0184918823D1F090E0880F991FAF
:10062000FC01E455FF4FA591B491FC01E654FF4F46
:10063000C591D49161110EC09FB7F8948C91E22FAF
:10064000E0958E238C932881E223E8839FBFDF917E
:10065000CF9108958FB7F894EC91E22BEC938FBF74
:10066000F6CF3FB7F8948091590190915A01A0912B
:100670005B01B0915C0126B5A89B05C02F3F19F026
:100680000196A11DB11D3FBFBA2FA92F982F882712
:10069000BC01CD01620F711D811D911D42E0660FED
:1006A000771F881F991F4A95D1F708958F929F92BF
:1006B000AF92BF92CF92DF92EF92FF924B015C011B
:1006C0000E9431036B017C010E9431036C197D098A
:1006D0008E099F09683E734081059105A8F321E0CA
:1006E000821A9108A108B10888EEC80E83E0D81ECE
:1006F000E11CF11C81149104A104B10429F7FF90BD
:10070000EF90DF90CF90BF90AF909F908F90089523
:100710008F929F92AF92BF92CF92DF92EF92FF9211
:100720000F931F93CF93DF936C017B018A0180911C
:100730000B01882309F45BC080918901882309F4A7
:1007400056C08091630180FF05C08091E000826007
:100750008093E000E801B12C8AEFA82E93E0892E67
:100760002AE3922E209711F4BB20D9F10E942F0189
:1007700081110AC0AA94AA20D1F161E070E080E062
:1007800090E00E945603EECF8C171D0611F00CF07E
:100790008C2F9FB7F8948092E9002091E80025FD06
:1007A00002C09FBFDFCF282F30E0C21BD30BF70161
:1007B000815020F041914093F100FACFE20EF31EF8
:1007C000BB2021F09092E800B12CEBCF8091E800A3
:1007D00085FDE7CF9092E800BB24B394209709F3FE
:1007E000F3CF84E680936201101611063CF081E09D
:1007F00090E0F6019383828310E000E0C801DF916E
:10080000CF911F910F91FF90EF90DF90CF90BF900D
:10081000AF909F908F9008950895089590E080E0A4
:100820000895CF93DF93EC0160E08E810E948F02E8
:1008300061E08E810E948F0260E08E810E948F02B3
:100840008BE891E00197F1F7DF91CF910895CF9276
:10085000DF92EF92FF920F931F93CF93DF936C0180
:100860007C0187E0E80EF11CD0E0C0E0062F10E02C
:10087000B8010C2E02C0759567950A94E2F7617075
:10088000F70181917F010E948F022196C430D1052A
:1008900079F7C601DF91CF911F910F91FF90EF90F3
:1008A000DF90CF900C941104CF92DF92EF92FF92E1
:1008B0000F931F93CF93DF93EC01F62E642F8C815F
:1008C0000E948F028D818F3F19F060E00E948F029D
:1008D0000F2D10E08F8584FF25C06E0187E0C80EC4
:1008E000D11CF12CE12CB8010E2C02C07595679536
:1008F0000A94E2F76170F60181916F010E948F0204
:10090000FFEFEF1AFF0A88E0E816F10461F7CE0165
:10091000DF91CF911F910F91FF90EF90DF90CF90DB
:100920000C941104B80184E0759567958A95E1F7F8
:10093000CE010E9427046F2DCE01DF91CF911F9130
:100940000F91FF90EF90DF90CF900C94270440E040
:10095000682F8AED91E00C94540481E00E94A70472
:100960008BE39FE10197F1F70895CF93DF9391E037
:100970009093ED011092EE0190E49093EF0180933B
:10098000F001805C8093F10161E08091DE010E94C2
:1009900000038091DF018F3F19F061E00E940003A6
:1009A00061E08091E0010E940003CAEDD1E09E0168
:1009B0002A5D31408091E90184FD0BC084E090E024
:1009C00021962817390744F461E08E810E940003C4
:1009D000EECF88E090E0F4CF8BE39DE00197F1F754
:1009E00060E08091DE010E948F0260E08091E00172
:1009F0000E948F028091DF018F3F19F060E00E941A
:100A00008F028091E90184FD34C063E08AED91E0BA
:100A10000E942704CBE4D6E4CE010197F1F763E00E
:100A20008AED91E00E9427042197F1F763E08AEDB7
:100A300091E00E94270483E592E00197F1F762E0DC
:100A40008AED91E00E9427048091E90180620E9472
:100A5000A70484E08093EA018CE00E94A7040E942E
:100A6000AD0482E08093EB0186E0DF91CF910C949E
:100A7000A70480620E94A7048BE496E40197F1F733
:100A80008091E90180620E94A70483E592E00197CA
:100A9000F1F78091E90180620E94A704D5CFE1E0DF
:100AA0008091ED018111E0E0E195F0E0E652FE4F2A
:100AB000848980680C94A70441E00E94540481E07A
:100AC00090E00895FB0101900020E9F73197AF0114
:100AD000461B570BDC01ED91FC910280F381E02D68
:100AE00009948F929F92AF92BF92EF92FF920F93D1
:100AF0001F93CF93DF93CDB7DEB7A1970FB6F894CE
:100B0000DEBF0FBECDBF7C01FA01CB0119A222309E
:100B100008F42AE08E010F5D1F4F822E912CB12C1C
:100B2000A12CBF01A50194010E94FC0BF901CA018F
:100B30006A300CF5605DD8016E938D01232B242B58
:100B4000252B79F790E080E0109721F0BD01C701D7
:100B50000E946205A1960FB6F894DEBF0FBECDBF0E
:100B6000DF91CF911F910F91FF90EF90BF90AF90C9
:100B70009F908F900895695CDECF1F920F920FB601
:100B80000F9211242F933F934F935F936F937F9313
:100B90008F939F93AF93BF93CF93EF93FF93C091A6
:100BA000E1008091E100837F8093E100C3FF0FC0EB
:100BB0001092E90081E08093EB001092EC0082E358
:100BC0008093ED001092890188E08093F000C2FFCD
:100BD00014C00E94FA0080916201882329F080915C
:100BE000620181508093620180918801882329F0FD
:100BF00080918801815080938801C4FF23C0809137
:100C0000E2008E7E81608093E2008091E1008F7E21
:100C10008093E100809163018E7E80618093630107
:100C2000FF91EF91CF91BF91AF919F918F917F9164
:100C30006F915F914F913F912F910F900FBE0F9049
:100C40001F901895C0FFECCF8091E2008E7E8061EE
:100C50008093E2008091E1008E7E8093E10080919C
:100C600063018E7E8160DACF1F920F920FB60F92D2
:100C70001124CF92DF92EF92FF920F931F932F9345
:100C80003F934F935F936F937F938F939F93AF9314
:100C9000BF93EF93FF93CF93DF93CDB7DEB76C97FE
:100CA000DEBFCDBF1092E9008091E80083FF2FC026
:100CB00089E0FE017596EE2EDF2E815029F090918D
:100CC000F10090833196F9CF84E68093880182EF1A
:100CD0008093E8008D8987FF39C09091E80090FFEC
:100CE000FCCF982F907609F033C19E894F89588D9B
:100CF0002F89F88C911131C0803861F580916401A1
:100D00008093F1001092F1008EEF8093E8006C96D2
:100D10000FB6F894DEBF0FBECDBFDF91CF91FF912C
:100D2000EF91BF91AF919F918F917F916F915F9163
:100D30004F913F912F911F910F91FF90EF90DF9076
:100D4000CF900F900FBE0F901F9018959EEF90932D
:100D5000E800C7CF1092F100D5CF913059F481113E
:100D6000D3CF4130510581F6809164018D7F80930E
:100D70006401CACF933049F48111C6CF4130510587
:100D800019F6809164018260F2CF953041F4809130
:100D9000E80080FFFCCF20682093E300B5CF9630B9
:100DA00009F0A8C00B8D1C8D22E01092E900109272
:100DB000600110925F01F2122EC010925E0110923B
:100DC0005D010E94E1011F8299E09983FA8291E01E
:100DD0009E8390EA98879AEF998720915F013091DE
:100DE0006001275F3F4F3C832B838D831092E90086
:100DF0001092600110925F0110935E0100935D01FB
:100E000049E050E0BE016F5F7F4F80E00E94BB0170
:100E10000E94E10179CF10935E0100935D010E9471
:100E20004001DC0112960D911C910115110509F488
:100E300057C1D801ED91FC910480F581E02D6E2D14
:100E40007D2DC8010995009709F045C1F80100857D
:100E50001185EBCFF3E0FF120EC08F89882309F4D0
:100E600040C0823061F440E867E186E891E00E948A
:100E70008801811149CF81E28093EB0048CF813016
:100E800029F440E868E08DE791E0F1CF833099F7ED
:100E90000E944001DC011296ED90FC908E010F5FE4
:100EA0001F4F6801E114F10479F0D701ED91FC9135
:100EB0000680F781E02DB801C7010995080F111DC3
:100EC000F701E084F184EECFD8011C92F601019085
:100ED0000020E9F73197BF016C197D0940E0C60198
:100EE000C6CF67E671E0FB01449150E080E80E94C4
:100EF000BB010ACF973009F4BECF983021F481E0CE
:100F00008093F10001CF993009F0FECE837009F093
:100F1000B2CFE7E1F1E081E031E096E321912223D5
:100F200071F08093E9003093EB00DF0111972C9171
:100F30002093EC009093ED008F5F873079F78EE778
:100F40008093EA001092EA008F8980938901DCCEB9
:100F50008B8D9C8D1092E9001092600110925F01C0
:100F600090935E0180935D01898D81119AC08E8975
:100F70009D89913A49F4813209F07DCF47E050E0F4
:100F800064E071E080E0B3CF913209F074CF833236
:100F900069F48F89988DB0E0A0E080930001909370
:100FA0000101A0930201B0930301AECE8032A9F4F7
:100FB0008091E80082FFFCCF88E0E4E0F1E081501E
:100FC00029F09091F10090833196F9CF84E68093D7
:100FD00088018BEF8093E80097CE823209F094CE9F
:100FE0008F8980930B01EEEFFFE7859194918B3F02
:100FF0009C4D51F1E0E0F8E08091040190910501F1
:10100000A0910601B0910701803B9440A105B10574
:10101000F1F480910B0180FD1AC0EE3F8AE0F807E1
:1010200089F587E797E791838083809160008093BB
:10103000610188E19BE00FB6F894A8958093600069
:101040000FBE9093600060CEEEEFFAE0D5CF8081C6
:1010500091818737974709F057CEA8958091600016
:101060008861809360008091610180936000EE3F11
:101070002AE0F20789F08091FE0A9091FF0A91839D
:10108000808342CE808191818737980751F2909377
:10109000FF0A8093FE0AC5CF1092FF0A1092FE0A43
:1010A00033CE0E944001DC0112960D911C91011576
:1010B000110509F4E0CED801ED91FC910190F08189
:1010C000E02D6E2D7D2DC801099581111DCEF801F1
:1010D00000851185ECCF181619060CF415CECBCE71
:1010E000F1E0FF12B7CE6BE671E0FDCE1F920F92DA
:1010F0000FB60F9211242F933F938F939F93AF932B
:10110000BF938091690190916A01A0916B01B091A8
:101110006C013091580123E0230F2D3758F50196CB
:10112000A11DB11D209358018093690190936A011C
:10113000A0936B01B0936C018091590190915A0179
:10114000A0915B01B0915C010196A11DB11D80933E
:10115000590190935A01A0935B01B0935C01BF9138
:10116000AF919F918F913F912F910F900FBE0F9054
:101170001F90189526E8230F0296A11DB11DD2CF0E
:101180001F920F920FB60F9211242F933F934F93FC
:101190005F936F937F938F939F93AF93BF93EF93DF
:1011A000FF93E0911401F09115010995FF91EF91E2
:1011B000BF91AF919F918F917F916F915F914F916F
:1011C0003F912F910F900FBE0F901F9018951F9277
:1011D0000F920FB60F9211242F933F934F935F936B
:1011E0006F937F938F939F93AF93BF93EF93FF93EF
:1011F000E0911201F09113010995FF91EF91BF91D8
:10120000AF919F918F917F916F915F914F913F919E
:101210002F910F900FBE0F901F9018951F920F9255
:101220000FB60F9211242F933F934F935F936F93B9
:101230007F938F939F93AF93BF93EF93FF93E0912F
:101240001001F09111010995FF91EF91BF91AF91BC
:101250009F918F917F916F915F914F913F912F91CE
:101260000F900FBE0F901F9018951F920F920FB600
:101270000F9211242F933F934F935F936F937F931C
:101280008F939F93AF93BF93EF93FF93E0910E01E2
:10129000F0910F010995FF91EF91BF91AF919F914F
:1012A0008F917F916F915F914F913F912F910F900F
:1012B0000FBE0F901F9018951F920F920FB60F92AE
:1012C00011242F933F934F935F936F937F938F934B
:1012D0009F93AF93BF93EF93FF93E0910C01F09135
:1012E0000D010995FF91EF91BF91AF919F918F9162
:1012F0007F916F915F914F913F912F910F900FBE12
:101300000F901F901895EAE8F1E01382128288EEA0
:1013100093E0A0E0B0E084839583A683B78381E265
:1013200091E0918380838FEF9FEF95878487EAED2B
:10133000F1E01382128283E391E09183808388E05D
:10134000848386E0858384E08683178281E08087BA
:1013500089E0818785E08287138614861586168644
:10136000178680E10C94B504789484B5826084BDBE
:1013700084B5816084BD85B5826085BD85B5816099
:1013800085BD80916E00816080936E001092810017
:1013900080918100826080938100809181008160D2
:1013A0008093810080918000816080938000809193
:1013B0009100826080939100809191008160809380
:1013C0009100809190008160809390008091C10095
:1013D00084608093C1008091C10082608093C100CD
:1013E0008091C10081608093C1008091C3008160C1
:1013F0008093C3008091C00082608093C000809180
:10140000C20081608093C20080917A0084608093E2
:101410007A0080917A00826080937A0080917A00CD
:10142000816080937A0080917A00806880937A004E
:101430001092890110926401109263018091D7008B
:1014400081608093D70080EA8093D80089B580615D
:1014500089BD89B5826089BD09B400FEFDCF61E018
:1014600070E080E090E00E9456038091D8008F7C6D
:1014700080618093D8008091E000807F8093E000BD
:101480008091E1008E7E8093E1008DE08093E20008
:1014900088E00E94B5040E944F056BE371E08AED7D
:1014A00091E00E9462050E944F058FEF9FEF90939D
:1014B000970180939601C0910B016AE070E080E093
:1014C00090E00E945603C1111AC08091650190916D
:1014D0006601A0916701B0916801883823E1920705
:1014E000A105B10560F40196A11DB11D80936501B0
:1014F00090936601A0936701B0936801DCCF1092CE
:10150000650110926601109267011092680161E016
:101510008DE00E94000360E087E00E940003F894E1
:1015200086E591E0909315018093140180916A0003
:10153000806380936A00EE9A78948AE0B82E9AE0ED
:10154000E92EF12C20E0C22E20E0D22E80917A01EB
:1015500090917B0103970CF020C12FB7F8948091F4
:10156000690190916A01A0916B01B0916C012FBF4C
:1015700080936E0190936F01A0937001B0937101FD
:1015800061E471E08AE891E00E946205D0E0C0E089
:1015900080916D0181110CC0C43F31E0D30741F04F
:1015A00061E070E080E090E00E9456032196F0CF69
:1015B0008FB7F8944090690150906A0160906B0178
:1015C00070906C018FBF40927201509273016092D3
:1015D00074017092750180916E0190916F01A091DC
:1015E0007001B0917101481A590A6A0A7B0A409247
:1015F00076015092770160927801709279010E9491
:101600004F05C43F81E0D80779F00E94AD040E94E5
:101610004F052AE0B301A2018AED91E00E94710515
:1016200010927B0110927A0180917601909177015E
:10163000A0917801B09179010297A105B10508F058
:101640003FC080917A0190917B01019690937B013C
:1016500080937A010E944F0563E471E08AED91E086
:101660000E9462050E94FA0064E670E080E090E06B
:101670000E94560364E571E08AE891E00E946205E9
:1016800064EF71E080E090E00E9456030E94FA004F
:101690000091760110917701F0917801E091790144
:1016A000C801C1E0D0E0009741F1B7010E94E80B0A
:1016B000CB019E01B29EE001B39ED00D1124F3CF69
:1016C000C43FD14079F680917A0190917B010196D7
:1016D00090937B0180937A010E944F056CE471E046
:1016E0008AED91E00E9462056AE070E080E090E09F
:1016F0000E9456030E94FA00B5CFC230D1051CF1FA
:10170000CE01B7010E94E80BEB019B01770F440B60
:10171000550BB8018F2F9E2F0E94FC0B19018B01D6
:101720003C012AE0BA01A1018AE891E00E9471051A
:101730000E94FA0064E670E080E090E00E945603A8
:10174000F62DE72DDACF64E670E080E090E00E94AD
:10175000560366E571E08AE891E00E94620564EF55
:1017600071E080E090E00E9456030E94FA008091B0
:101770006D01882309F4EACE61E08DE00E948F02BA
:1017800062E370E080E090E00E94560360E08DE04C
:101790000E948F0210926D01D9CE0E94AD046CE4BC
:1017A00071E08AED91E00E94620564EF71E080E0F3
:1017B00090E00E9456030E94AD0410927B011092AB
:1017C0007A01C114D10409F4C1CE0E940000BECE3A
:1017D00097FB072E16F4009407D077FD09D00E94DE
:1017E000240C07FC05D03EF4909581959F4F0895F9
:1017F000709561957F4F0895A1E21A2EAA1BBB1B1D
:10180000FD010DC0AA1FBB1FEE1FFF1FA217B307CC
:10181000E407F50720F0A21BB30BE40BF50B661FE2
:10182000771F881F991F1A9469F7609570958095A6
:1018300090959B01AC01BD01CF010895EE0FFF1FF4
:101840000590F491E02D0994AA1BBB1B51E107C040
:10185000AA1FBB1FA617B70710F0A61BB70B881F40
:10186000991F5A95A9F780959095BC01CD010895CF
:04187000F894FFCF1A
:10187400FFFFFFFF00E10000000000000C040C0467
:101884000C040C040C0400C1808100000000000062
:10189400003F028803550254017502590265020093
:1018A4000000005C0512020E040D0473746172746E
:1018B400004100546F6F20466173740054696D6574
:0818C4006F757400420043003F
:00000001FF
